:020000040000FA
:1000000002072D020803FFFFFFFFFF02080BFFFF9F
:10001000FFFFFF020813FFFFFFFFFF02081BFFFFA8
:10002000FFFFFF020823FFFFFFFFFF02082BFFFF78
:10003000FFFFFF020833FFFFFFFFFF02083BFFFF48
:10004000FFFFFF020843FFFFFFFFFF02084BFFFF18
:10005000FFFFFF020853FFFFFFFFFF02085BFFFFE8
:10006000FFFFFF020863FFFFFFFFFF02086BFFFFB8
:10007000FFFFFF020873FFFFFFFFFF02087BFFFF88
:10008000FFFFFF020883FFFFFFFFFF02088B78FFDF
:10009000FFFF040000000100000000000000060057
:1000A00000000008000074F512056D8908740F59EE
:1000B000F50A750B00740B780A1206F9EA2400F8A9
:1000C000EB3480F9EA2400E9350BF985C709E50826
:1000D000C4540FFAE5C754F84AF5C7740B12076405
:1000E000E0FAA3E0FB801C88828983E08C828D8308
:1000F000F088828983A3A882A9838C828D83A3AC94
:1001000082AD83EAFEEBFFEE24FF1AEF34FFFBEE35
:100110004F70D48509C77F040205D374F712056DAB
:10012000ED900109F0ECA3F0A37462F0A37473F0F6
:10013000A3E0541FF07409120764E0F508A3E0F58A
:1001400009E508333354FC90010EF0740678081268
:10015000073CE50890010DF090010F7412F0A374B4
:1001600042F075D1FE75D601EA906271F0EBA3F012
:10017000906270E0D2E1F0E0A2E740FB7F0202056E
:10018000D3C082C083E9C333906272F0906270E0A2
:10019000D2E0F0D083D082227808EB54806004D281
:1001A000F08002C2F0EA25E0FAEB33FBE9A2E75067
:1001B0000474014AFAA2F0500874216AFA74106BB0
:1001C000FBE9C333F918E870D12274F112056D8A86
:1001D000088B098C0A8D0B740F120764E0F50CA3D1
:1001E000E0F50D7411120764E0F50EA3E0F50FE9D8
:1001F0006014780E12070C780C12070C120243746C
:100200000412066E802F90012578081206E6780EFB
:1002100012070CAC0CAD0D85080C85090DAA0CE578
:100220000D5407FB740B78081206A4A9081200A647
:10023000740212066E7F080205D3C2F989F9A2F989
:1002400050FC2274F112056D8A0C8B0D8C0E8D0FF3
:10025000C293790512023AE5F9A2E040F5D2930083
:1002600000C293790B12023A850C08850D09850EA0
:100270000A850F0B741078081206A4A90812023A16
:10028000850D09A90912023A850C08A90812023A3B
:10029000790012023A740F120764E0FEA3E0FF74C3
:1002A00011120764E0F508A3E0F509801179001246
:1002B000023AE5F98E828F83F0A3AE82AF83A8085D
:1002C000A909E824FFF508E934FFF509E84970DDDC
:1002D000D29302023574B01206BD53BEFBE59DA257
:1002E000E650FA0078F8790100E824FF18E934FFB5
:1002F000F9E84970F375C600E59E70FC43BE0490B2
:1003000062707408F0D28043FD01D28143FD02D2B5
:100310008243FD04D28343FD08438F0175F80075C5
:10032000FC0B75FAD843FC2043F10243F4E053F48C
:10033000F143900EC29143FE0E53F5DFD2FED291EF
:100340007401F5D57409F5D48029900101E0F8A372
:10035000E0F9A3E8F0A3E9F0750801750900780851
:1003600012070C7C017D017A227B0212011B7402B0
:1003700012066E750808750900780812070C7C01D2
:100380007D017A887B0079011200A6740212066E44
:10039000900101E0F8A3E0F9A3E0687003A3E0692D
:1003A0007009020800745012066E22E849700302B8
:1003B00004467E007F008E0C8E0D8E0E8E0F806D9B
:1003C000900115C082850C08850D09850E0A850FE0
:1003D0000B90011178081206E6758301D082780827
:1003E00012064F5040750801750900780812070C75
:1003F000740212071D88088909780812070C790011
:10040000AA0CAB0DAC0EAD0F12056712066E851867
:1004100082851983E0F9EEFAEFFB1201988A088BC6
:1004200009AE08AF09900119780C1206E690010593
:10043000780C12064F5089900101E06E7003A3E022
:100440006F700302034A750800750902750A457545
:100450000B00780A12070C740D12071D880A890B0D
:10046000780A12070C790190011D120758120567CE
:1004700012066E750A06750B00780A12070C7407CF
:1004800012071D880A890B780A12070C7901741566
:10049000120764E0F50AA3E0F50BAA0AFBE4FCFDF1
:1004A00012056712066E7514007515007516007535
:1004B0001700802B8E0A750B00780A12070C740344
:1004C000120725AA08AB0912011B740212066E0559
:1004D00008E5087002050990011578141206E67403
:1004E00007120764781412064F5003020373750A4B
:1004F00004750B00780A12070C740312071D880A92
:10050000890B780A12070C7E0185140C85150D8560
:10051000160E85170F7415120764E0F510A3E0F5A9
:1005200011E4F512F513780C79101206D39001211D
:10053000780C1206E6AA0CAB0DAC0EAD0FEEF9125C
:10054000056712066EA808E5095401F9E849600339
:100550000204B4880A85090B7409780A12073CA9B9
:100560000A1201810204B41201CA7404222518C5BA
:1005700082C0E0E51934FFC583C0E0E518C3958269
:1005800024F910AF0885831985821880088583199E
:10059000858218D2AFCEF0A3E520F0A37808E60854
:1005A000F0A3DEFAEFF0A3E58124FBF8E608F0A360
:1005B000E608F0A30808E608F0A3E608F0A3158112
:1005C0001581D0E0FED0E0F815811581E8C0E0EE9D
:1005D000C0E022851983851882E0A3FEE0A3F52000
:1005E0007808E0A3F608DFFAE0A3FFE0A3C0E0E0AC
:1005F000A3C0E0E0A3C0E0E0A3C0E010AF088582A4
:10060000188583198008858218858319D2AFD08315
:10061000D08222E4900101781179018002F0A3D800
:10062000FCD9FA7A117B0190008E78197901801536
:10063000E493A3AD82AE838A828B83F0A3AA82ABBC
:10064000838D828E83D8E9D9E71202D512076EC056
:1006500008C3E096F50808A3E096420808A3E096D0
:10066000420808A3E09645087001D3D0082200C0D4
:10067000D0251810AF08F518500C05198008F5188A
:1006800050020519D2AFD0D0222518F58210AF083C
:10069000F518400C15198008F51840021519D2AF4D
:1006A000851983226016080808C6C313C618C61326
:1006B000C618C613C618C613C6D5E0EA22251810F8
:1006C000AF08F518400C15198008F51840021519E7
:1006D000D2AF22E627F60809E637F60809E637F62C
:1006E0000809E637F622E026F608A3E036F608A366
:1006F000E036F608A3E036F622700422600D18C634
:10070000C333C608C633C6D5E0F41822740280008D
:10071000C0E0F404120689D0E012074B222518F835
:10072000E43519F9222518FCE43519FD2275D000AD
:1007300075813F751801751901020613600C08C612
:10074000C313C618C613C6D5E0F422CAC0E0E6F04B
:10075000A308DAFAD0E0FA22E0FAA3E0FBA3E0FC77
:10076000A3E0FD222518F582E43519F58322000067
:100770000080FBFFFFFFFFFFFFFFFFFFFFFFFFFF0B
:10078000FFFFFFFFFFFFFFFFFFFFFFFFFFFFFFFF79
:10079000FFFFFFFFFFFFFFFFFFFFFFFFFFFFFFFF69
:1007A000FFFFFFFFFFFFFFFFFFFFFFFFFFFFFFFF59
:1007B000FFFFFFFFFFFFFFFFFFFFFFFFFFFFFFFF49
:1007C000FFFFFFFFFFFFFFFFFFFFFFFFFFFFFFFF39
:1007D000FFFFFFFFFFFFFFFFFFFFFFFFFFFFFFFF29
:1007E000FFFFFFFFFFFFFFFFFFFFFFFFFFFFFFFF19
:1007F000FFFFFFFFFFFFFFFFFFFFFFFFFFFFFFFF09
:040000050000072DC3
:00000001FF
