:020000040000FA
:10080000021424020B0AFFFFFFFFFFFFFFFFFFFFA1
:10081000FFFFFFFFFFFFFFFFFFFFFFFFFFFFFFFFE8
:10082000FFFFFFFFFFFFFFFFFFFFFF0211DEFFFFE4
:10083000FFFFFF020F7FFFFFFFFFFFFFFFFFFFFF35
:10084000FFFFFFFFFFFFFFFFFFFFFFFFFFFFFFFFB8
:10085000FFFFFF020A3FFFFFFFFFFFFFFFFFFFFF5A
:10086000FFFFFFFFFFFFFFFFFFFFFF020F59FFFF2B
:10087000FFFFFFFFFFFFFFFFFFFFFFFFFFFFFFFF88
:10088000FFFFFF020A9EFFFF13201320FFFFFFFF61
:1008900078563412010000000100F0FF0700080044
:1008A00000FFFF0000070400000003000147726F13
:1008B000757000FF0400100502640A2FAC092FAC0C
:1008C00009C0C1C2C3C4C5C6C7C8C9CACBCCCDCE76
:1008D000CF5A6967426565416C6C69616E636530CA
:1008E000390100FFFFF2E0A1610000000000018F6C
:1008F00087A615AC15B815B2150020FD000206FF3D
:10090000FF1EFFFFFFFFFFFFFFFFFFFFFFFFFFFFD8
:10091000FF020119000E040100000000000001990F
:10092000870E00CE17B91C00FF0EFF7A8783FED317
:10093000407A939723A5C639B26916D505C3B50089
:100940008000194B6401FF09004C180000003C1F97
:100950000000481F00000000000000000000000030
:1009600001090401030101036386035786010401A1
:10097000000101019587000000020401000101014E
:100980009587000000030401000101019587000024
:100990000004040100010101958700000005040125
:1009A0000C00010197870000000604010C00010102
:1009B00097870000000704010C00010197870000E1
:1009C000000804010C0001019787000000010400E9
:1009D00000AB18000000E8030000FFFF25190188A4
:1009E000130000E803000064006400B801A0BB0D20
:1009F00000A0BB0D0002020207040101051E020552
:100A00001E020A0A0101010809080103B80B02804D
:100A10003E0102FEFFE8030A050001FFFF010A0193
:100A20001401E00105030101FF0F10FEFF793600FC
:100A30000000004D3500000000FF000000FF00C076
:100A4000E074F1120D21A2AFE433F509D2AF85A70E
:100A500008AFA1EF5508FE74105E60061217BC7552
:100A6000A1EF74085E60081217C275A1F78024EF29
:100A7000A2E092F0E508A2E082F05017906198E0C1
:100A8000F89004BAE0C398A2D265D0335002E8F0DF
:100A900075A1FEE509A2E092AF7F02020D80C0E0E1
:100AA00074F2120D21A2AFE433FED2AF9061A4E044
:100AB000F8759B00E59158540860087591F7121875
:100AC000108023E59158541060087591EF121816A4
:100AD0008014E591A2E092F0E8A2E082F05007E0F5
:100AE000C2E0F01219609061A3E0F8E5E9585404FF
:100AF000600E12193675E9FB906193E0A2E640F2B0
:100B0000EEA2E092AF7F01020D80C0E074F2120D00
:100B100021A2AFE433FED2AF9061A5E0F8E5BF5863
:100B20005404600675BFFB12197880D4C3E498F8AA
:100B3000E499F9120B6D8026C3E49AFAE49BFBE971
:100B400020E7E9120B6DE498F8E499F922C3E498E0
:100B5000F8E499F9120B6DE498F8E499F9C3E49A72
:100B6000FAE49BFB22EB20E7CFE920E7E0B9001095
:100B7000BB0008E88AF084F8AAF022E4FBC8FA2255
:100B8000EB70227B10C833C8C933C9335007C39AEE
:100B9000C3DBF280069A50012ADBEAC833F4C8C9E5
:100BA00033F4C9FA2275F008E4C833C8C933C9332D
:100BB000C99AC99B5004C92AC93BD5F0ECFBC8337C
:100BC000F4C8E4C9FA22080808EAC0E0EBC0E086ED
:100BD000F0E7A4FA180986F0E7A42AFA180986F0C3
:100BE000E7A42AFA180986F0E7A42AFA1986F0E79A
:100BF000A4FBE5F02AFA190886F0E7A42BFBE5F040
:100C00003AFA190886F0E7A42BFBE5F03AFA18182F
:100C10000986F0E7A4C5F02BFBE43AFA1908E7C50A
:100C2000F0C6A426F6E5F03BFBE43AFA1886F0E7B6
:100C3000A4F6E5F00826F6E43B08F6E43A08F6D018
:100C4000E0FBD0E0FA22E4CFC0E0E4CEC0E0E4CDA7
:100C5000C0E0E4CCC0E075F020E626F608E633F606
:100C600008E633F608E633F6181818EC33FCED33D3
:100C7000FDEE33FEEF33FFC3EC9709ED9709EE97D6
:100C800009EF97191919400FFFEC97FC09ED97FD33
:100C900009EE97FE191906D5F0BFECF709EDF70933
:100CA000EEF709EFF7191919D0E0FCD0E0FDD0E01C
:100CB000FED0E0FF222518C582C0E0E51934FFC54B
:100CC00083C0E0E518C3958224F810AF0885831926
:100CD0008582188008858319858218D2AFCEF0A34B
:100CE000E520F0A37808E608F0A3DEFAEFF0A3E52C
:100CF0008124FAF8E608F0A3E608F0A3E608F0A3DA
:100D00000808E608F0A3E608F0A315811581D0E0F5
:100D1000FED0E0F8158115811581E8C0E0EEC0E055
:100D200022C0D02518C582C0E0E51934FFC583C0B4
:100D3000E0E518C3958224F310AF088583198582F6
:100D4000188008858319858218D2AFC8F0A3E9F00E
:100D5000A3EAF0A3EBF0A37908E709F0A3D8FAEC33
:100D6000F0A3EDF0A3EEF0A3EFF0A3D0E0F0A3D05A
:100D7000E0F0A3D0E0F0A3E520F0A3E5F0F0A3229B
:100D8000851983851882E0C0E0A3E0F9A3E0FAA307
:100D9000E0FBA37808E0F608A3DFFAE0FCA3E0FD9F
:100DA000A3E0FEA3E0FFA3E0C0E0A3E0C0E0A3E077
:100DB000F5D0A3E0F520A3E0A3F5F010AF088583FC
:100DC000198582188008858319858218D2AFD08250
:100DD000D083D0E0F8D0E03212149EB90003020EA6
:100DE00017E4900401783C79198002F0A3D8FCD96B
:100DF000FA7A3C7B1C90089878A879028015E493D5
:100E0000A3AD82AE838A828B83F0A3AA82AB838D4B
:100E1000828E83D8E9D9E77582B275838874071208
:100E200011517582C27583327400121151E4730C32
:100E300075F0108E1A8F1B85821F85831E85188280
:100E4000851983E0CEA3E0CF851F82851E83EBC981
:100E5000EAC8EDCBECCAC3E833C8E933C9EA33CA00
:100E6000EB33CBC3EA9EF51DEB9FF51CB35004ABEF
:100E70001CAA1DEC33CCED33CDD5F0DAAE1AAF1B86
:100E800022D083D082ECC0E0EDC0E0E493A3FCE488
:100E900093A3FDED4C600D120F9DEC24FFFCED348F
:100EA000FFFD80EFE493A3FCE493A3FDED4C600D04
:100EB00012103AEC24FFFCED34FFFD80EFD0E0FD92
:100EC000D0E0FCE493A3C0E0E493C0E022D083D060
:100ED00082E9C0E0E493A3C386F0C5F095F0F90879
:100EE000E493A386F0C5F095F0700BE493A3C39947
:100EF0004005E9048002A3E475F002A42582F5828E
:100F0000E5F03583F583D0E0F9E493A3C0E0E49302
:100F1000C0E022851983851882E0A3FEE0A3F520B6
:100F20007808E0A3F608DFFAE0A3FFE0A3C0E0E062
:100F3000A3C0E0E0A3C0E0E0A3C0E0E0A3C0E010F5
:100F4000AF088582188583198008858218858319E2
:100F5000D2AFD083D082021157C0E074F2120D21BB
:100F6000A2AFE433FED2AFE58AA2E350031216A883
:100F7000758A00C2C5EEA2E092AF7F01020D80C06B
:100F8000E074F2120D21A2AFE433FED2AFE58BA2E2
:100F9000E050031216A8758B00C2E880D8C0E0C3E9
:100FA000E49396087401939618400FE493667008D2
:100FB00008740193661870007019A3A3C3E4939694
:100FC000087401939618A3A3400DD0E0D0E0D0E0C0
:100FD000020EBDA3A3A3A3A3A3D0E02274048004A4
:100FE00074028000CCC0E0EDC0E0E518C39CCCAD3D
:100FF0001950011D10AF068C188D1980068C188DA4
:1010000019D2AF1210D3D0E0FDD0E0FC22740280E0
:1010100000CCC0E0EDC0E0E518C39CCCAD19500198
:101020001D10AF068C188D1980068C188D19D2AF43
:101030001210B1D0E0FDD0E0FC22C0E0C0F088F09A
:10104000E4936670080874019366187000A8F0A312
:10105000A3700BD0F0D0E0D0E0D0E0020EBDA3A38F
:10106000D0F0D0E022D083D082CCC0E0E493A36063
:10107000061210F41470FAE493A3600612127114AD
:1010800070FAD0E0FCE493A3C0E0E493C0E022A2B5
:10109000E792D65002F40430F70663F0FF05F0B390
:1010A000400384800384F40430D60563F0FF05F028
:1010B00022CAC0E0E493A3C582CCC582C583CDC556
:1010C00083F0A3C582CCC582C583CDC583DAE5D0C4
:1010D000E0CA22CAC0E0E0A3C582CCC582C583CDE8
:1010E000C583F0A3C582CCC582C583CDC583DAE6AE
:1010F000D0E0CA22C0E0E493A3D39C5010E493A3B1
:10110000C39C400AD0E0D0E0D0E0021082A3A3A3A9
:10111000D0E0227009080808226016181818C6C303
:1011200033C608C633C608C633C608C633C6D5E0BC
:10113000EA22C008C3E096F50808A3E09642080832
:10114000A3E096420808A3E09645087001D3D008B2
:1011500022C09FF59FE473D09F22D083D082C09F8E
:10116000E493C0E0740193C0E0740293F59F22C53C
:10117000822518C582C583351910AF07F5198582F8
:10118000188007F519858218D2AFC58322740480B0
:101190000A74038006740280027401C0E0F4041231
:1011A00011A8D0E0121461222518F58210AF08F5BD
:1011B00018400C15198008F51840021519D2AF8592
:1011C00019832200C0D0251810AF08F518500C055F
:1011D000198008F51850020519D2AFD0D022C0E00E
:1011E000C0D0E8C0E0A8A8D2AFC2C7E8A2E792AFDB
:1011F000D0E0F8D0D0D0E032BB0102E722C082C0FC
:101200008389828A83BB0003E08002E493D083D089
:1012100082226016080808C6C313C618C613C6186B
:10122000C613C618C613C6D5E0EA222518F8E43559
:1012300019F9222518FAE43519FB222518FCE435A2
:1012400019FD22C3E0C696F608A3E0C696F608A3E9
:10125000E0C696F608A3E0C696F622251810AF0859
:10126000F518400C15198008F51840021519D2AF71
:1012700022C0E0E493A36C7009D0E0D0E0D0E0029B
:101280001082A3A3D0E022E76670100809E7667019
:101290000A0809E76670040809E76622E06670102C
:1012A00008A3E066700A08A3E066700408A3E0667D
:1012B00022C3E09608A3E09608A3E09608A3E09670
:1012C000A2D265D03322C3E096F008A3E096F008DE
:1012D000A3E096F008A3E096F022C3E49396087486
:1012E0000193960874029396087403939622C3E6BA
:1012F00097F60809E697F60809E697F60809E697CB
:10130000F622E627F60809E637F60809E637F60872
:1013100009E637F622E026F608A3E036F608A3E051
:1013200036F608A3E036F622E493F608740193F645
:1013300008740293F608740393F622E026F008A3DB
:10134000E036F008A3E036F008A3E036F022E056DD
:10135000F008A3E056F008A3E056F008A3E056F02A
:1013600022E046F608A3E046F608A3E046F608A306
:10137000E046F622E647F60809E647F60809E6479A
:10138000F60809E647F622700422600D18C6C3333A
:10139000C608C633C6D5E0F41822E657F60809E6B3
:1013A00057F60809E657F60809E657F622E056F61A
:1013B00008A3E056F608A3E056F608A3E056F62286
:1013C000E046F008A3E046F008A3E046F008A3E0FA
:1013D00046F022E4C396F608E496F608E496F6088A
:1013E000E496F622600D08C6A2E713C618C613C617
:1013F000D5E0F322C6F4C608C6F4C608C6F4C6088B
:10140000C6F4C622C3E09608A3E09608A3E09608B7
:10141000A3E09622C3E7960809E7960809E796082D
:1014200009E7962275D00075813F7518017519047A
:1014300000020DD8E6F008A3E6F008A3E6F008A342
:10144000E6F022600C08C6C313C618C613C6D5E062
:10145000F422E0F608A3E0F608A3E0F608A3E0F61D
:1014600022CAC0E0E6F0A308DAFAD0E0FA22E8F0F7
:10147000A3E9F0A3EAF0A3EBF022E0F8A3E0F9A3DC
:10148000E0FAA3E0FB22EAF0A3EBF0A3ECF0A3ED7B
:10149000F022E0FAA3E0FBA3E0FCA3E0FD22E5C715
:1014A00054F84401F5C77901222518F582E435196D
:1014B000F58322C2AF75D69F0200002212115A8412
:1014C0007B0012115AEE7B0012115AF87B001211A8
:1014D0005A657C0012115A6F7C0012115A0C7D0063
:1014E00012115ACA7D0012115A2B7F0012115A8212
:1014F0007F0012115ABA7F0012115A218E06121162
:101500005A9D8E0612115AD08E0612115AFE8E0660
:1015100012115A18910612115A34910612115A7961
:10152000910612115AFE910612115A4A9206121190
:101530005ADA920612115AB2930612115A039406FD
:1015400012115A68940612115AE5940612115A1B88
:10155000950612115A66950612115A8C95061211AB
:101560005A1C960612115AB3960612115AFF960685
:1015700012115A30970612115A67970612115AF82B
:10158000980612115AC2990612115A9C9A06121103
:101590005A2AE40212115A5DE40212115AA5E40219
:1015A00012115AB1E60212115A01E90212115A340B
:1015B000E90212115A03EC0212115A9AEE021211A8
:1015C0005A25EF0212115AA1F20212115A6DF302BA
:1015D00012115ADEF40212115A60F50212115A3138
:1015E000F60212115A6EF80212115A03F902121180
:1015F0005AE5FA0212115AF4FD0212115AF7FD02CD
:1016000012115A0AFE0212115A57FE0212115AEC16
:10161000ED0512115A59F20512115ABDF2051211B7
:101620005ADEF30512115AA6F70512115A23FB05CB
:1016300012115AFDFC0512115A4BFD0512115A06E2
:10164000FF0512115A25970712115A3697071211E2
:101650005AD4970712115AEC970712115AFBFF013F
:1016600012115AD9FF0512115AFB970712115A0B82
:10167000980712115A23980712115A8B98071211C2
:101680005AD3FE0212115A56FF0212115ABCFF021F
:1016900012115ACEFD0612115AF0FD0612115A5FB0
:1016A000FE0612115AA4FE0612115AFDFE06121170
:1016B0005AE7E60612115AFCE60612115A07E80626
:1016C00012115A38E80612115A52E80612115AC875
:1016D000E80612115AADE90612115A21EA06121152
:1016E0005A3BEA0612115A52EA0612115A60EA06E9
:1016F00012115A78EA0612115A8DEA0612115AB2DC
:10170000EA0612115A02EB0612115AB7F606121126
:101710005AC5F60612115A3EF70612115A12F80669
:1017200012115AE4F90612115A63E20612115A21F3
:10173000E40612115A5CE40612115ACCE4061211A6
:101740005A56E50612115A61E50612115A11E606BB
:1017500012115ABC990712115ACAD80612115AF618
:10176000D80612115A67DB0612115AA7DB061211AE
:101770005AE7DB0612115AFBDB0612115A14DC067B
:1017800012115A05DD0612115AAADD0612115ABEAF
:10179000DD0612115A57920712115A7B9207121145
:1017A0005A94920712115AC6920712115AF69207CA
:1017B00012115A23930712115A85930712115A9442
:1017C000930712115A9E930712115AAB93071211E5
:1017D0005A0D860712115A2D860712115A6C860768
:1017E00012115A87860712115AA6860712115A0C2F
:1017F000870712115A15870712115A72870712119B
:101800005A81870712115AA5870712115A6688074D
:1018100012115A73880712115A84880712115A310B
:10182000990712115A49990712115A7599071211FD
:101830005A14DE0612115A6EDF0612115A7CDF06A8
:1018400012115A8FDF0612115AA4DF0612115AB96B
:10185000DF0612115ACCDF0612115A40E0061211AF
:101860005AA5E00612115A47E10612115A0BE20678
:1018700012115A1BE20612115A2AE20612115A4399
:10188000FF0612115A67FF0612115A8FFF06121136
:101890005AB7FF0612115AD08D0712115AF78D0749
:1018A00012115A158E0712115A888E0712115A3AC0
:1018B000830712115A53830712115A5F83071211BB
:1018C0005A73830712115A91830712115A9B830787
:1018D00012115AA5830712115AB8830712115A3EE2
:1018E000840712115AB3840712115AE284071211A5
:1018F0005A30850712115A7F850712115A9A8507A7
:1019000012115AA4850712115AB5850712115AF8F7
:10191000850712115A96980712115A8CC80612118F
:101920005AB6C80612115AD3C80612115AE6C8068A
:1019300012115AFCC80612115A5AC90612115A92AB
:10194000C90612115A86CD0612115ACBCE061211B3
:101950005AFECE0612115A61CF0612115AC1D00694
:1019600012115AE9D00612115AFED00612115A0E5F
:10197000D10612115A52D10612115AADD1061211C6
:101980005ABDD10612115AF5940712115A0F950734
:1019900012115A37950712115A50950712115A749D
:1019A000950712115A92950712115AA9950712110B
:1019B0005AD7950712115AF2950712115A789907BA
:1019C00012115A49FA0612115A59FA0612115A5EA0
:1019D000FB0612115A90FB0612115AC0FB06121197
:1019E0005AE3FB0612115AFAFB0612115A34FC068E
:1019F00012115A99FC0612115ADBFC0612115A1ADE
:101A0000FD0612115A4BFD0612115A76FD061211EF
:101A10005AEEFF0412115AF1FF0412115AF4FF0496
:101A200012115A4C8B0712115A6C8B0712115A81E2
:101A30008C0712115AA28D0712115A40FE01121181
:101A40005A76FE0112115A8CFE0112115ACEFE0175
:101A500012115ADEFE0112115AEDFE0112115A3115
:101A6000FF0112115ACBFF0112115AD5FF011211B9
:101A70005ABFBE0612115AC9BE0612115AF4BE064A
:101A800012115A3DBF0612115AA6BF0612115AC3AF
:101A9000BF0612115ADCBF0612115A7EC00612117F
:101AA0005AFDC20612115A06C30612115A4BC3063A
:101AB00012115A74C30612115A81C30612115AF236
:101AC000C30612115A7DC40612115ACBC406121154
:101AD0005A09C50612115A6EC50612115A91C50649
:101AE00012115A08C60612115A5FC60612115A9AE6
:101AF000C60612115ACFC60612115AE1C6061211B5
:101B00005AF3C60612115A12C70612115A1BC706FB
:101B100012115AD6C70612115A22C80612115A605B
:101B2000C80612115AB5930712115A2190071211C3
:101B30005A57900712115A9F900712115AF891079D
:101B400012115A31DA0512115A55DB0512115A8F4A
:101B5000DB0512115A39DD0512115A63DD05121128
:101B60005AD8DF0512115A18E00512115AAEE105D4
:101B700012115A4BE20512115A9DE20512115A40F8
:101B8000E30512115A78E30512115ABAE30512114E
:101B90005A29E50512115A77E60512115AA8E805E7
:101BA00012115AD6E80512115AFDE80512115A060B
:101BB000E90512115A5DE90512115AEFE9051211F2
:101BC0005A1CED0512115A9FED0512115AD8FF014A
:101BD00012115AEEFF0112115A8FFF0412115A37D7
:101BE000EB0612115A4DEB0612115AF1EB061211C7
:101BF0005A30EC0612115A4DEC0612115A7EEC06C0
:101C000012115ACBEC0612115AFEEC0612115A3977
:101C1000ED0612115A2EEF0612115A2596071211CF
:101C20005A84960712115AC2960712115A0397073F
:101C300012115A00800412115A0C800412115A50C9
:101C4000820412115A5A820412115A628204121129
:101C50005AF8820412115A34830412115AE583048B
:101C600012115AF8830412115A61840412115AE1B4
:101C7000840412115A31850412115A678504121115
:101C80005AE4850412115AAE870412115ABA890413
:101C900012115AAF8A0412115A3C8B0412115A8441
:101CA0008C0412115A858D0412115ABC8E04121123
:101CB0005A52930412115A3B940412115AD49404A8
:101CC00012115AF9940412115A1E950412115AB89D
:101CD000950412115ACE950412115AF0950412115E
:101CE0005A61960412115A80960412115AA9960448
:101CF00012115AA9970412115AA7980412115A32B4
:101D00009A0412115AD89A0412115A209B041211E3
:101D10005A899B0412115A169C0412115A7A9C0477
:101D200012115AD69C0412115A7A9D0412115AE6C5
:101D30009D0412115A199E0412115A829E04121106
:101D40005ADB9F0412115A5BA10412115A0DA2040E
:101D500012115A1DA20412115A6AA20412115AD267
:101D6000A20412115A02A30412115A73A3041211ED
:101D70005A24A40412115A0AA60412115A77A8046C
:101D800012115A8CA90412115AA9AD0412115A77D2
:101D9000AE0412115A95AF0412115A32B104121145
:101DA0005A759B0612115A259C0612115A9E9C06C2
:101DB00012115A9F9D0612115AA69E0612115A28F8
:101DC0009F0612115A47A00612115A68A006121156
:101DD0005A4FA10612115A8BA20612115A36A306A7
:101DE00012115A97A60612115A00800612115A8A29
:101DF000800612115A01810612115A11840612111D
:101E00005A94850612115AC4870612115A09890676
:101E100012115A648B0612115A928B0612115AD063
:101E20008B0612115A498C0612115AEF8C061211A8
:101E30005A008D0612115A078D0612115A9A8D06F4
:101E400012115AEC8D0612115A3CAF0512115A4765
:101E5000AF0512115ABCB00512115AD8B3051211B0
:101E60005A39B40512115A2DB50512115AA5B605E5
:101E700012115A7BB70512115ADDB70512115AAA71
:101E8000B80512115A6BBB0512115AB8BC051211D4
:101E90005A35BE0512115A0FC10512115AEFC2056B
:101EA00012115AF3C30512115A65C40512115AAC26
:101EB000EB0412115A75EC0412115A38ED04121188
:101EC0005AC2ED0412115A3DEE0412115A87EE0463
:101ED00012115A9FEE0412115ABDEE0412115AD774
:101EE000EE0412115A89EF0412115A99F0041211DA
:101EF0005A28F20412115A5BF20412115A6BF204BE
:101F000012115A53F30412115AF8F30412115A839E
:101F1000FE0412115ABDFE0412115A2BFF041211B5
:101F20005A4DFF0412115A5EFF0412115AEDD106E8
:101F300012115AA8D30612115A11D50612115A4D70
:101F4000D50612115A95D50612115A10D60612113D
:101F50005A64D60612115A05D70612115A08D70626
:101F600012115AAED70612115AD3D70612115AB40B
:101F7000D80612115A2B9A0712115A87D10412113E
:101F80005AB6D10412115A32D20412115A80D30413
:101F900012115A66D40412115ADFD50412115A04D0
:101FA000D60412115A56D60412115AD8D604121158
:101FB0005A1FD70412115A32D70412115A89D70462
:101FC00012115A4FD80412115ABBD80412115AE5F3
:101FD000D80412115A2ED90412115AB3DA0412116C
:101FE0005A8CDB0412115AD5DC0412115AA8DD04F4
:101FF00012115A30DE0412115A73DE0412115A8D76
:10200000DE0412115AD4DE0412115AF4DE04121145
:102010005AAFDF0412115AD2E00412115A2CE10413
:1020200012115A70E10412115A6CE20412115AE8AA
:10203000E40412115A07E50412115A7CE504121146
:102040005AA1E50412115A1EE60412115AE4E604DC
:1020500012115A21E70412115A9AE70412115A8EEA
:10206000E80412115A91E80412115A9BE804121163
:102070005AA5E80412115AB8E80412115A34E904B6
:1020800012115A6AE90412115A7DE90412115AA96F
:10209000E90412115AD0E90412115AF4E904121198
:1020A0005A2FEA0412115AA1EA0412115AC9EA0479
:1020B00012115AD3EA0412115A0FEB0412115A29C1
:1020C000EB0412115A63EB0412115A79EB0412114A
:1020D0005AE1980712115AF9980712115AF8FF019C
:1020E00012115A0AF70112115A59F70112115AF92D
:1020F000F80112115AB4FA0112115AF6FA0112112A
:102100005A15FC0112115A1FFD0112115A41FD010D
:1021100012115A8BFD0112115A0CFE0112115A4A6A
:10212000B30412115A6DB30412115AD8B404121127
:102130005A21B50412115A7BB50412115AE1B504A3
:1021400012115AE4B50412115A27B60412115AABEF
:10215000B60412115A36B70412115A39B7041211C3
:102160005ACBB70412115A0EB80412115AA4BC0467
:1021700012115A36BE0412115A7DBE0412115AF6BB
:10218000C10412115A2DC30412115A0AC4041211A7
:102190005A98C40412115ABFC40412115A44C704F5
:1021A00012115AF3C80412115AA1C90412115A2E5D
:1021B000CA0412115A1ACB0412115AD1CC041211AA
:1021C0005A61CD0412115A83CE0412115AEACF0477
:1021D00012115A37D00412115AD4D00412115A34A1
:1021E000C50512115AD4C50512115A3EC605121161
:1021F0005A57C60512115AD9C60512115A1DC705DC
:1022000012115A31C80512115A7EC80512115ADD31
:10221000C80512115AE8C90512115AFDCC05121150
:102220005A2FCE0512115AB0CE0512115AAFD00551
:1022300012115A5CD10512115A08D20512115AED29
:10224000D20512115AB8D40512115A21D60512110D
:102250005A31D70512115AD3D70512115AF2D8059F
:1022600012115A7FD90312115AF3D90312115A3B92
:10227000DA0312115A79DA0312115AC8DA03121169
:102280005A12DB0312115A4ADB0312115AC8DB033C
:1022900012115A22DC0312115A7EDD0312115A0D5B
:1022A000DE0312115A24DF0312115A4CDF031211FC
:1022B0005A92E00312115AA3E00312115ABBE00331
:1022C00012115AC5E10312115A8FE20312115A9CDE
:1022D000E30312115AC0E30312115AD7E303121198
:1022E0005AF8E30312115A1AE40312115A37E4039D
:1022F00012115A13E50312115AE5960512115AFDEF
:10230000E70312115A4CE80312115A6BE803121139
:102310005A4AE90312115A80E90312115A98EA0342
:1023200012115A15EB0312115A82EB0312115ABE05
:10233000EB0312115A27EC0312115AE1EC031211AC
:102340005A9FEE0312115AA0EF0312115A25F103FE
:1023500012115A10F30312115A73F50312115A197C
:10236000F70312115AE7F70312115A697B00121191
:102370005A64F80312115A54F90312115A40FA031D
:1023800012115AADFA0312115A00800712115AA500
:10239000810712115A62820712115AC6820712115E
:1023A0005A3BEF0612115A59EF0612115A9DEF06C9
:1023B00012115AC3EF0612115AE9EF0612115A010F
:1023C000F00612115A19F00612115A7CF006121179
:1023D0005ABEF00612115AE0F10612115AE9F1063E
:1023E00012115AF2F10612115AFBF10612115A0596
:1023F000F20612115A4AFB0312115A65FF03121119
:102400005A73FF0312115A78FF0312115AD9890720
:1024100012115A5C9A0712115AF4990712115AD5DF
:10242000FF0212115ADFFF0312115A00800312112A
:102430005A32800312115A9E800312115A398103B5
:1024400012115AD8810312115A1D820312115A3FD8
:10245000820312115A58820312115A7E82031211FA
:102460005AA0820312115ADE820312115A228303E8
:1024700012115A44830312115AA6830312115A6D82
:10248000840312115A24850312115A9685031211DE
:102490005A68860312115AB2860312115A0587032D
:1024A00012115A6B870312115AA5870312115AF79A
:1024B000870312115A13880312115A3E880312110E
:1024C0005A458A0312115A998B0312115ABB8B0376
:1024D00012115AEF8B0312115A108C0312115A1F4A
:1024E0008C0312115A2A8C0312115ADA8C0312111E
:1024F0005A438D0312115AF08D0312115A288E037C
:1025000012115AEE8E0312115AFB8F0312115A4503
:10251000900312115AD4900312115A3891031211D8
:102520005A73910312115ADF930312115A33950310
:1025300012115A6C980312115A39990312115AC781
:10254000990312115AF0990312115A629A03121147
:102550005AF69A0312115A549B0312115A469C03BD
:1025600012115A689C0312115AC49D0312115A0881
:102570009E0312115A219E0312115A349E03121106
:102580005AA39E0312115AAF9F0312115ABC9F0304
:1025900012115AC59F0312115A9DA10312115AC359
:1025A000A20312115AD3A20312115AD5A303121176
:1025B0005A4CA40312115A7BA40312115A81A50389
:1025C00012115AC7A50312115A93A70312115A6B7D
:1025D000AB0312115A75AB0312115A89AB031211D6
:1025E0005A93AB0312115A9DAB0312115AA7AB03B6
:1025F00012115AC0AB0312115ACAAB0312115A3E40
:10260000AC0312115A49AC0312115A6EAC031211E9
:102610005A79AC0312115AC7AC0312115AD1AC0348
:1026200012115ADCAC0312115A00AD0312115A24D4
:10263000AD0312115A80AD0312115AC6AD03121127
:102640005AE3AD0312115A60AE0312115A97AE034A
:1026500012115AD6AE0312115A23AF0312115AA502
:10266000AF0312115A3EB00312115A0EB2031211E7
:102670005A6CB20312115A88B30312115AAEB30343
:1026800012115AEDB40312115A13B80312115A540D
:10269000BA0312115A30BC0312115AC6BC031211EC
:1026A0005AEDBE0312115A99BF0312115ACEBF033D
:1026B00012115A33C00312115A3DC00312115A6746
:1026C000C20312115A8EC30312115ACEC303121140
:1026D0005A74C40312115A05C60312115A8EC70345
:1026E00012115AAEC70312115A07C80312115A0920
:1026F000C90312115A53C90312115AA3C903121163
:102700005A8DCA0312115A02CB0312115A1CCC0360
:1027100012115A97CC0312115A9CCD0312115A4729
:10272000D00312115A66D00312115AC7D1031211E5
:102730005A89D30312115ADDD30312115A95D403C7
:1027400012115A44D50312115A9AD50312115A5034
:10275000D60312115AE5D60312115A51D70312119A
:102760005A8BD70312115ABCD70312115A18D90326
:1027700012115A00800212115A32800212115A6943
:10278000800212115A52820212115A35830212111A
:102790005A8D830212115AC8840212115A148502EA
:1027A00012115A3C880212115A9E8B0212115AEBD6
:1027B0008C0212115A818D0212115A8D8D02121142
:1027C0005ABF8D0212115A418F0212115A4F9002B4
:1027D00012115A79900212115AD0900212115A29EC
:1027E000910212115A95910212115AAC93021211D0
:1027F0005A3B950212115A05960212115A4397023A
:1028000012115A73990212115A439C0212115A5012
:102810009C0212115AD79C0212115A7F9D0212116A
:102820005AC29D0212115A0B9E0212115A5F9E0249
:1028300012115AC49E0212115A2C9F0212115A49A7
:102840009F0212115A799F0212115AAE9F02121161
:102850005A7EA00212115A27A10212115AABA302EA
:1028600012115ACBA40212115AB4A50212115A36EF
:10287000A60212115A58AA0212115A95AA0212114E
:102880005AEDAA0212115A20AB0212115AA1AB0240
:1028900012115AEEAB0212115A79AC0212115ACB34
:1028A000AC0212115AA2AD0212115A5BAE02121101
:1028B0005AF6AE0212115A0FB20212115A2FB30277
:1028C00012115AE0B60212115AFEB70212115A0141
:1028D000B80212115A30B80212115A36BA02121145
:1028E0005A0FBB0212115A44BB0212115A4CBC02BD
:1028F00012115A02BD0212115AA3BE0212115AC875
:10290000BE0212115A07BF0212115A79BF021211E8
:102910005A5DC00212115A2AC10212115A60C30232
:1029200012115AD1C30212115A11C40212115A4A79
:10293000C40212115ADEC40212115A27C602121121
:102940005AEAC90212115AD9CA0212115AC0CB024C
:1029500012115A38CC0212115AFACC0212115AF83A
:10296000CE0212115A10CF0212115A24CF021211A4
:102970005A5CCF0212115A8ACF0212115A11D10297
:1029800012115A1CD20212115A6ED20212115AD6C8
:10299000D20212115A88D30212115AB8D30212115C
:1029A0005A9CD40212115A4DD50212115A3CD70228
:1029B00012115A71D70212115AD9D70212115A089C
:1029C000D90212115ABAD90212115AEBD9021211B4
:1029D0005A03DA0212115A92DA0212115A46DD0231
:1029E00012115A1EDF0212115A3ADF0212115A5600
:1029F000DF0212115A24E00212115A08E4021211E5
:102A00005AFEF20612115A3EF30612115AF1F4065A
:102A100012115A00F50612115AB8980512115ACF20
:102A20009D0512115A1A9E0512115A6AA00512111B
:102A30005AFEA10512115A8CA20512115AEDA405D5
:102A400012115AF2A60512115A46A70512115A552B
:102A5000A90512115A86A90512115AC6A905121103
:102A60005AE1A90512115A3CAA0512115A5EAA058B
:102A700012115A65AA0512115A7DAA0512115A5D42
:102A8000AB0512115A3CAC0512115AA38701121161
:102A90005ADB870112115AB98C0112115AFF8C01AD
:102AA00012115A4C8E0112115AB78E0112115A404E
:102AB000900112115A50930112115A6B9401121184
:102AC0005A7D9E0112115A109F0112115A62A201E1
:102AD00012115A5EA30112115AB9A30112115A031D
:102AE000A50112115AF1A50112115A8DA801121156
:102AF0005A01AA0112115A84AA0112115A87AA0175
:102B000012115AFCAA0112115A06AB0112115A13E2
:102B1000AB0112115A3EAB0112115AEEAB01121168
:102B20005AE7AC0112115A92AD0112115AB0AD011F
:102B300012115AC9AD0112115AF2AD0112115A14F3
:102B4000AE0112115A69B00112115A2EB1011211BF
:102B50005A73B10112115AF2B10112115A9EB20107
:102B600012115AD0B20112115A24B30112115A5F34
:102B7000B30112115AA6B30112115AF6B301121180
:102B80005AFBB30112115A4FB40112115A7BB4010E
:102B900012115A64B50112115AB5B50112115A1524
:102BA000B60112115A6FB60112115A0AB701121169
:102BB0005A49BA0112115A5BBB0112115AD5BC0114
:102BC00012115AE5BF0112115A83C00112115A792C
:102BD000C30112115A38C40112115A7CC4011211D6
:102BE0005A27C60112115A3BC60112115A45C60195
:102BF00012115A4FC60112115A5BC60112115A80A6
:102C0000C60112115A59C80112115AAEC801121147
:102C10005AB8C80112115AC2C80112115A37C90153
:102C200012115A86C90112115A97CA0112115AE497
:102C3000CA0112115AF1CB0112115A35CC011211ED
:102C40005ADBCC0112115ACECD0112115A94CE0189
:102C500012115AB7CF0112115AD5D00112115ABD13
:102C6000D10112115AD5D10112115A2CD2011211CF
:102C70005A36D20112115A41D20112115A5FD201B1
:102C800012115AA7D20112115A09D30112115A3046
:102C9000D30112115A42D30112115ADDD30112117C
:102CA0005A12D40112115AF9D40112115A3ED50107
:102CB00012115A24D60112115A4BD60112115ACEB2
:102CC000D60112115A3FD70112115AC8D801121158
:102CD0005AF4D90112115AB7DA0112115A7FDB01E5
:102CE00012115A09DC0112115A31DD0112115AD3A5
:102CF000DD0112115A4EDE0112115A0ADF011211C2
:102D00005A54DF0112115AAEDF0112115A86E00146
:102D100012115AA9E00112115A5CE10112115A7EF6
:102D2000E10112115AE7E10112115AFDE3011211FA
:102D30005AF5E40112115AB9E50112115AEBE701F3
:102D400012115A35E80112115A85E80112115AE997
:102D5000E80112115A4BE90112115A79E9011211D5
:102D60005A9DE90112115AD2E90112115A03EA01DE
:102D700012115A36EA0112115A86EA0112115AD971
:102D8000EA0112115AFEEB0112115A9EED011211C5
:102D90005AF9ED0112115A22EE0112115AAFEE0149
:102DA00012115A1DEF0112115A2BEF0112115A4F35
:102DB000EF0112115AA4EF0112115ABFEF011211C3
:102DC0005A71F00112115AA9F00112115AECF001D6
:102DD00012115A4FF10112115A51F30112115A7B7B
:102DE000F30112115A72F40112115A7CF5011211F9
:102DF0005A2CF60112115AC6A80612115AFEA8063C
:102E000012115A1FA90612115A61A90612115AC3AA
:102E1000A90612115ACDA90612115ADDA9061211DE
:102E20005A18AA0612115AF8AD0612115AE5AF0641
:102E300012115ACBB10612115A62B20612115A047B
:102E4000B30612115A343B0012115ADF3B00121123
:102E50005A8D3C0012115A933D0012115AB33D0095
:102E600012115ADC3E0012115A97400012115A0AF0
:102E7000410012115AAE410012115ABA4200121109
:102E80005A25430012115A61430012115AA44300FB
:102E900012115ADF430012115A21440012115AB67E
:102EA000440012115A32450012115AFC4500121109
:102EB0005AD9460012115A71470012115A8B470015
:102EC00012115ABB470012115AEC470012115AB2A4
:102ED000480012115AC2480012115A114900121129
:102EE0005A1E490012115A27490012115AA54900C9
:102EF00012115A014A0012115A4C4A0012115A6713
:102F00004A0012115A924A0012115AAF4A00121185
:102F10005ABB4A0012115A524C0012115A6B4C0003
:102F200012115AF04C0012115A034D0012115A227C
:102F30004D0012115AC64D0012115A474F0012117E
:102F40005AFA500012115A90510012115A9351001E
:102F500012115A03520012115A21520012115AB87A
:102F6000520012115A00530012115A035300121149
:102F70005AC9530012115A36540012115A5C5400A7
:102F800012115AE7540012115A05550012115A4BEA
:102F9000550012115AFF550012115A4956001211CC
:102FA0005A78560012115AD5560012115A0A570073
:102FB00012115A36570012115A44570012115A91E1
:102FC000570012115A01580012115A4A5800121192
:102FD0005A96580012115AC2580012115ACD580070
:102FE00012115AEB580012115AD6590012115AE018
:102FF000590012115A1B5A0012115A2B5A00121161
:103000005A7F5A0012115A935A0012115AC25B0089
:1030100012115AD75B0012115A655C0012115AAA9C
:103020005C0012115A365D0012115A415D001211F6
:103030005A835E0012115A9E5E0012115AEA5E0017
:1030400012115A595F0012115A925F0012115AACB4
:103050005F0012115A0C600012115AAB600012117D
:103060005AF6600012115AC6630012115A786400B1
:1030700012115AE5640012115A25670012115A3DC7
:10308000670012115A40670012115A4C6700121162
:103090005A60670012115A68670012115A9B670044
:1030A00012115A9E680012115A2B690012115A9B74
:1030B000690012115A1D6A0012115ADE6A001211BB
:1030C0005AFD6A0012115A9E6B0012115AFB6B00D6
:1030D00012115AFE6B0012115A726C0012115AC171
:1030E0006D0012115AC76E0012115A526F00121160
:1030F0005A6D700012115A35710012115A66710022
:1031000012115A89710012115A92710012115AC18A
:10311000710012115A51720012115A0773001211E4
:103120005A7C730012115A23740012115A987400B9
:1031300012115ACF740012115A0D750012115AD47F
:10314000960512115AA4960512115A9A9605121153
:103150005A2D960512115A81940512115A3F940561
:1031600012115A71930512115A5B930512115A1CD0
:10317000930512115A76920512115A678F05121192
:103180005A3A8D0512115A0A8D0512115AAE8C0544
:1031900012115A488C0512115A078C0512115A390E
:1031A0008B0512115AD48A0512115A788A05121108
:1031B0005A1B8A0512115AB9880512115A568805E8
:1031C00012115AA0870512115A9B870512115A84B1
:1031D000870512115A4F870512115A728405121170
:1031E0005ACB7A0012115A6F840512115ADF7900F6
:1031F00012115A15790012115A70760012115ABB29
:10320000750012115A43750012115A2998051211AE
:103210005A2D840512115A1A840512115A0F840569
:1032200012115AEB830512115ADE970512115A3109
:10323000820512115AB9810512115A5081051211D5
:103240005ACF800512115A8B800512115A729705B8
:1032500012115A00800512115A4DF80312115A74B6
:10326000BE0612115A1BBE0612115ADDBD061211FE
:103270005AB0BD0612115A7CBD0612115A1BBD066A
:1032800012115A03BD0612115AD3BC0612115AA8C4
:10329000B90612115A7BB70612115A82B5061211DD
:1032A0005A08B50612115AB7B40612115A71B4066B
:1032B00012115A0F970512115ADBB30612115A6BED
:1032C000E50300000080FB8F000100C31D870001A3
:1032D00000C11D35000400871D250002008B1D263E
:1032E0000002008D1D270002008F1D28000100999B
:1032F0001D290001009A1D84000400B219860001F6
:10330000004A1C2A0001009B1D2B0001009C1D2C63
:10331000000100A11D2D000800C0192E000100A20F
:103320001D2F000100A31D30000100A41D3100016C
:1033300000A51D32000100C81933000100C919346D
:10334000000100A61D36000100CA1938000100A7BF
:103350001D39000100A01D83000200BF1D63000194
:1033600000D519640001009D1D650001009E1D6DC2
:10337000000100D61971000800B81966000100BEEE
:103380001D43000100AF1D44000200B01D450001B7
:1033900000B21D46000200B31D47000800CD1948C9
:1033A000000100B51D4B000100B61D04000100C264
:1033B0001DA1000100C61D37000100C51D880001C8
:1033C00000C41D3C000100CB193D000100A81D49AF
:1033D000000200B71D67000100D7194D000200B9B7
:1033E0001D4E000100BB1D4F000200BC1D3E000130
:1033F00000AE1D51000100AA1D52000100AB1D537B
:10340000000100AD1D54000100CC190000000000B7
:103410000000013636010100010201000103010034
:10342000010401060605020000070100340801003E
:103430000F090401010D0100FF0E08000017020032
:1034400000190100FF1A0100011B0100FE1C010010
:10345000081D0200001F01000120010001210200DF
:10346000002301000F2402000026010001270100B3
:1034700008280200FF2A0100072B0102402C01004E
:10348000002D0100012E0100012F0100FF30010B72
:103490001D310800003A0100083B01000F3C01000B
:1034A000013D0100FF3E040000420400004604000C
:1034B000004A0400004E04000052040000560400BC
:1034C000005A0400000000000020019F8700000354
:1034D000002001A08700000400420189810000054E
:1034E0000042013985000006004201AB810000075F
:1034F000003001A1870000100042035A180000119B
:103500000030036B18000012001003041D0000FDC2
:10351000FF21019D870300000021036C180300FDBB
:10352000FF21419D87070000003001E91C070010C2
:103530000030034D180700FDFF21019D870600FDA7
:10354000FF21819D870400FDFF21819D870103717B
:103550000301030103010301030103220302030129
:103560000310030003000300030003000300030033
:1035700003420300032403060300030003040312B1
:10358000032503230325032303040304030003008B
:103590000300034403000300032303000365032126
:1035A000003503810300030503000300030003004B
:1035B000032503230303047104020460041104704F
:1035C000040204020401040204100461040004144F
:1035D00004630473047204620443040004130406C5
:1035E00004000400040404120400040004000400A5
:1035F00004510464000004000400044404000400B6
:10360000040004000465040004350481046400051A
:10361000040004830400040101710101010101118E
:103620000101013101010101018001100161013B32
:103630000014006301730172016201430100011370
:103640000106013D013500040112010001000100E5
:1036500001000104010401330133013C0144013242
:103660000136000001000165010001350081010003
:103670000105018201830100010300710030016036
:10368000001100700031022003500480001000611E
:103690000000001400630073007200620043000029
:1036A00000130006000000000004001200000000EB
:1036B000000000000004000400370037003C024412
:1036C00000000000000000000065000000350081DF
:1036D00000000005000000830000000302710230BA
:1036E0000160021102700201020202020280021055
:1036F0000261023A004100630273027202620243F5
:10370000020002130238000002000204021202004A
:103710000200020002000204020402370037003CEB
:103720000244020002390000020002650200023574
:1037300002810200020502820283020002210010BF
:103740000020815B1C210011004381000021001238
:103750000020835C1C2100130020835D1C210014C9
:103760000020835E1C2100150043813E04210016C9
:10377000001A815F1C210017001A81621C210020A1
:10378000001883400421002100F183651C210022E0
:1037900000F183751C2100FDFF2181851C3600018D
:1037A00000060000000F0000000000000000000004
:1037B00000000003FFFF00000403FFFF0000FFFF05
:1037C0000FF4010005C4040320000100000B0000F9
:1037D00000000000000003010F00000000000000D6
:1037E00000000000000000000000000000000000D9
:1037F0000000000000000000000000321D6E1D38B7
:103800001D541C3E1D741D3E1D801D441D541C3E38
:103810001D741D00000000000000000000000000FA
:10382000000000000000004A1D541C501D861D565B
:103830001D541C0000000000000000000000005C9F
:103840001D981D621D541C5C1D981D621D541C504A
:103850001D861D681D541C19000000F081E9171910
:103860000001002381A61C190002002381AA1C1953
:103870000003002181F117190004002381AE1C19F7
:103880000005002181B21C190006003081F31719D0
:103890000007002181F417190008002181F617198B
:1038A0000009002181F81719000A002381FA171373
:1038B0000094211F009A211F80A0210000122201E4
:1038C0000012220200402102803A21030046210416
:1038D000004C21048052210500582106006421314A
:1038E00000762133007C213400822136008821FFBC
:1038F000FF00000A000000020000000400000008B1
:1039000000000010000000200000004000000080C7
:1039100000000000010000000200000004000000A0
:10392000080000001000000020000000400000011E
:10393000C42A06F42A08EE2A0B122B10222702CAE8
:103940002A05E22A07D02A0CAC2A0DB82A640C25D5
:10395000FF000007ECFDFDFDECDCDCCCBCACAC9C5E
:103960009C8C7C7C6C6C5C5C5C4C4C3C3C2C2C1CC7
:103970001C03EAF5E5D5D5C5B5A59595858575757D
:103980006565555545453535252515150500160F31
:1039900000000B150B020002220F3300000E0FC0B7
:1039A000C1C2C3C4C5C6C7C8C9CACBCCCDCECF5A05
:1039B0006967426565416C6C69616E6365303900A9
:1039C000000000000000000000000000000000D027
:1039D000D1D2D3D4D5D6D7D8D9DADBDCDDDEDF300F
:1039E0003017181921301B1D1F3000034D4C465154
:1039F000181A2505020001191618161618230300B7
:103A00000C0E020B040B0A0708000F3030161819B1
:103A100020231A1C1E30003C40423A3F3F392F47BA
:103A20003002040201010101090206000000100336
:103A300071180C00550039037E180C00550039032D
:103A40007A180C005500390376180C00550039031C
:103A500072180600000010036F1806000000100323
:103A600070180600000010036E18E803000000BE86
:103A7000040AE8030E000000010003007F000000BC
:103A8000101109000503011E1EFF04010803080CA4
:103A900028100A000209033C0C0508150404E4F090
:103AA000A3F0A3F0A322123A9EF022901B3C1250E6
:103AB000AA122EAE22123AB922E0F508E4F509F571
:103AC0000AF50B22E824FBF582E934FFF58322E8AE
:103AD0002411F582E439F583E022F583123AE022DD
:103AE000E0F508A3E0F5092212312A74041211C38B
:103AF0007F08020F137401F09004D2E0640F227467
:103B0000091211C37F04020F13EA2413FAE43FFBE6
:103B1000123058E9227905123064740622A3A3E01A
:103B200024F5C39413221231369004F21270687A8D
:103B3000147B0022C082C083901B1B74A2F0A3746C
:103B40002EF0A374B4F0A3742EF0901B1F748AF0AF
:103B5000A3742EF0A37484F0A3742EF0A374C0F0A9
:103B6000A3742EF0A374C6F0A3742EF0A374BAF05D
:103B7000A3742EF0A37472F0A3742EF0901B2B7418
:103B800096F0A3742EF0A3749CF0A3742EF0A3748B
:103B900090F0A3742EF0A374CCF0A3742EF0901BBD
:103BA0003C125A796009901B3C1250A6121B3A90A5
:103BB0001B391253C07408126715A3F0901BE5F06F
:103BC000901B3EF07C0BFDF97A3F7B1B121A867C22
:103BD0000B7D0079007A4A7B1B121A8602521A74F6
:103BE000F7120CB574F712125BEAFEEBFF123C728F
:103BF00074051254DE7403F0123D891254C024304F
:103C0000FCE43FFD8C82123C6A123C7E6008124448
:103C10009774FFF0A3F0EE242EE43F1C1CFD8C8271
:103C2000F583A3E0C0E08A828B83125172D0E01248
:103C30003C7E888289831259AD2403F0EE1244A1A0
:103C40001214A97403F09004E7120FE07402121228
:103C50003B12406B1211C3E9F5087007EEFAEFFB57
:103C6000122F3EA90874090244B0F583E0888289C6
:103C70008322EA123C7722125BBC3FF58322126951
:103C8000951254CCE8F0A3E9126C6CE02274F012A7
:103C90000CB5EAFEEBFF8C0C8D0D890B123D89F5FE
:103CA000831254D474101214A9E0F508A3123C6CCA
:103CB000F0E824FFF582E912407DE508F0E824FEF3
:103CC000F582E912407DE50BF09004ECE0C0E0E8FD
:103CD00024FDF582E912407DD0E0F09004EBE0C0D5
:103CE000E0E824FCF582E912407DD0E0F074121285
:103CF00014A9123ADC123AC4E509F0E824FAF8E90A
:103D000034FFF98882F583E508F0EE2404FCE43FF3
:103D1000FD88088A828B83E0F50E8C828D83E025F6
:103D20000EC395081269951252FA850C82850D838F
:103D3000A3A3A3A3A3A3A3A3E064037009EE125457
:103D4000AEF0A3E4800312408212408A7409F07539
:103D5000083F75091B750A00780812119112645FFB
:103D60001211C37508FF7509FF7808121195AC0C84
:103D7000AD0D12406B1211C3E9F5087007EEFAEFB2
:103D8000FB122F3EA908023AF0EA2402FAE43FFBB4
:103D90008A8222C082C083901B5BE0C394084004E7
:103DA00074078001E08A828B83F033333354F8F94F
:103DB00002521A74F0120CB58A088B09890A8C0E0B
:103DC0008D0F750C00A2AFE433F50BC2AF901B55FD
:103DD0008045123EB5503D123ECF64037036E50873
:103DE00024F9F508E50934FFF5098E828F83A3A332
:103DF000E02405FCA3E03400FDAA08AB09121C2A4C
:103E0000E50824FFF508E50934FFF5097410250CD1
:103E1000F50C150A1242A412741DE50A6004EE4F57
:103E200070B0E50BA2E092AFA2AFE433F50BC2AFE6
:103E3000901B55803E1259868882F583124BFA8575
:103E40000882850983F08A828983123EC6A3A3E093
:103E5000C0E0E50824FFF582E50912407DD0E0F0DE
:103E6000E50824FEF508E50934FFF509050C150AF7
:103E70001242A41240F86021123ECF640270F11287
:103E80003EB5EE40B01255F5A2E550E4850E8285B0
:103E90000F837401F0E50A70D7E50BA2E092AF85BD
:103EA0000882850983E50CF0E50824FFFAE509346A
:103EB000FFFB023AF0123EBBA2E622EE2411F5828D
:103EC000E43FF583E022123ECA221259CBA3228E90
:103ED000828F83A3A31251761260A22274F0120C77
:103EE000B574F312125B74031214A9E9F074021290
:103EF00014A9EAF08B0B851882851983E4F004126B
:103F00001233122E54E9F89004D1E0292437F50831
:103F1000FA7B00121AA48A0C8B0DAE0CAF0DEA4F7F
:103F20007003024062EA2402F50EE43FF50FA80890
:103F3000EA28F8E43BF9850E82850F831249F69052
:103F400004D1E0F9FAC3E49AFA95E0FB850E828584
:103F50000F83E02AF50CA3E03BF50D9004CF123A55
:103F6000DC750A007808121191E9FC7D00AA0CABFF
:103F70000D1254301211C3AC18AD1974011214A9EA
:103F8000E0F9E50C24FFFAE50D34FFFB122E5A8A06
:103F9000828B83E4F0E50BC454F0F9901BE6E0C497
:103FA000333354C0F89004CBE0A2E0E43313134859
:103FB00049440FC0E0EA24FFF582EB12407DD0E0D7
:103FC000F0EA24FEF50CEB34FFF50D74031214A98E
:103FD000E0F874021214A9E0C454F048850C8285FC
:103FE0000D83F0A80C850E82850F831266E22AC32A
:103FF000988E828F83A3A3A3A3F0850E82850F835F
:10400000E8F0A3E50DF012408212408AE4F0740C4F
:104010001214A9E4F075084A75091B780812119169
:1040200012645F1211C3851882851983E06009EE5E
:10403000240E1255F74408F0123046E9F9E4F50869
:10404000F5097808121195740612123B12406D1290
:1040500011C3E97006EEFAEFFB800BEEFAEFFB12EC
:104060001AAA7A007B00740D023AED7903EEFAEF9A
:10407000FB12305E740222EE24FFF582EF34FFF56E
:104080008322EE123C77E4F0A322F012408F22EE5E
:104090001263823FF5832274F2120CB58A0C8B0DE9
:1040A000A2AFE433F50AC2AF750800750900901B92
:1040B00055802C1242B45024850C82850D83A3A315
:1040C0001264728E828F83A3A31250A612304CE921
:1040D000600A1242AFC2E6F08E088F091242A412A3
:1040E00040F870CFE50845096006124191D2E6F02C
:1040F000E50AA2E092AF800DE0FEA3E0FFEE4F22C2
:1041000074021211C37F06020F1374F0120CB58AE9
:104110000E8B0F8C0C8D0D750A00A2AFE433F50BDE
:10412000C2AF7E007F00901B558010AE08AF091211
:1041300041891255F5D2E7F012508412509860343C
:10414000124191A2E750F1850882850983A3A31249
:104150000FE0AC0CAD0DAA0EAB0F12305274021270
:1041600011C3E960D3EE4F60C212452B70061241B5
:10417000A3D2E4F0E50BA2E092AFEE4F6006122F5F
:1041800038750A01A90A023AF0123EBBD2E4F0EEF9
:1041900022E50812639C3509F583E022AA82AB83ED
:1041A000121C2A8E828F83A3A3125176E02274F20E
:1041B000120CB574FE12125B750C00750D0085189B
:1041C00082851983E4F0A3F0A2AF33F50AC2AF9061
:1041D0001B5512741D802BEE24FBF582EF34FF1269
:1041E0003ADA780C1211951242921211C3EEFCEFDA
:1041F000FDAA18AB19121AC8AE08AF09901B5BE0F4
:1042000014F0EE4F602B1242B4501DEE240BF8E474
:104210003FF98882F583E024FFF0A3E034FFF088C3
:10422000828983125A7960AF8E0C8F0D1242A4805E
:10423000A1E50AA2E092AF901B5BE0602C9004D253
:10424000E0640F6006901BE5E0701E7A337B1B1262
:104250003136908776120FDC7A337B1B1252A21212
:1042600011C3800574F0125183AA18AB19121ACE2B
:104270008A088B09AE08AF09EA4F6013122E661246
:1042800042AFA2E28E828F83A350D974E980D70215
:104290004100EEFCEFFD7A557B1B121ADA74022204
:1042A0008E0A8F0BEE24FBF582EF34FFF58322EEAE
:1042B000123EBC22123EBBA2E72274F7120CB5EAF2
:1042C000FEEBFF122E6612516F120E2DE964019063
:1042D00004EE700AE02401F8A3E0340080031250D9
:1042E000F5F91257F71252FA901B5BE0701F900419
:1042F000D2E0640F70177A337B1B123136908776C9
:10430000120FDC7A337B1B1252A21211C3A8A8C26F
:10431000AF901B5BE004F0E8A2E78004E508A2E0B0
:1043200092AF02570574F7120CB5EAFEEBFFEA12E2
:10433000435BF0122E66EEFCEFFD7A557B1B121AE2
:10434000D4A8A8C2AF901B5B124C499004D2E06481
:104350000F70057908122FFE025705123EBCC2E409
:104360002274F7120CB574EA12125BEAFEEBFF90AE
:1043700004CBE0602A8518828519837401F0121439
:10438000A9E41244161214A912419CC0E0740A1246
:1043900014A9D0E0126702740B1214A912596274A6
:1043A000160244B074F7120CB5EAFEEBFF122E4869
:1043B000E9F974DC69601E74DD69601974E4696090
:1043C0001474F369600F74DE69600A74DF69600554
:1043D00074DB697007EEFAEFFB12300402570574C4
:1043E000F7120CB574EB12125BEAFEEBFF85188234
:1043F00085198374061244161214A9AA82AB83127B
:104400001C2AEE2408FCE43FFD740A1214A9125978
:104410006274150244B0F0EA2413FCE43FFD740218
:104420002274F7120CB574F712125BEAFEEBFFEA86
:1044300024301255F7605DEA1244A11214A97403E6
:10444000F09004E7120FE0124497120FE09004FA84
:10445000E0F9740412123BEEFAEFFB122E4E7404D4
:104460001211C3E9F974DC69602374DD69601E749C
:10447000E469601974F369601474DE69600F74DFB5
:1044800069600A74E869600574DB697007EEFAEF29
:10449000FB123004023C65EE242EF582E43FF583E6
:1044A00022126873AA18AB19121C2A74082274030A
:1044B0001211C302570574F2120CB58A0C8B0D75DC
:1044C0000A00750B007508E7A2AFE433F509C2AF27
:1044D000901B5580031242A01240F860251242B48E
:1044E00050F312452B70EEEE24321246C2E0687093
:1044F000E4780A1211951242921211C3901B5BE0EC
:1045000014F0E509A2E092AFEE4F6013EEFAEFFB74
:10451000122E6679F0EEFAEFFB123004750800A94E
:1045200008AA0CAB0D12300402410512408FE06462
:10453000012274F4120CB574F712125BEAFEEBFF61
:104540008A82F583A3E064F370030245D08A828BEC
:1045500083A3E064DF60798A828B83A3E064E860F0
:104560006F8A828B83A3E064DB6065122EA8E9F575
:10457000087055EE240E1255F7604D1245DA60486A
:1045800074081214A91245E9120FE07508FF7509A5
:10459000FF78081211958E828F83A3A3A3A3A3A3F0
:1045A000A3A3E0F9740412123B122E4E74041211EC
:1045B000C3E9F50874F369600F74DF69600A74E891
:1045C00069600574DB69700F8E828F83A3E508F044
:1045D000EEFAEFFB122EB4023AFFEE240FFAE43F9C
:1045E000FB7909122EEAEA4B227402125E6874FF0C
:1045F000F0A31245F6221259B6A3A32274F1120CAD
:10460000B5EAFEEBFF7508008A82F583A3A3A3A396
:10461000A3A3123B1D40037508E88A828B83A3A3E2
:10462000A3A3A3A3A3A3A3A3E0C394104005750869
:10463000E880138A828B83A3A3A3A3A3A3A3A3A32A
:10464000A3E0640F600B901BC2E054087003750870
:10465000E8EA240B1246C2A3A3A3A3A3A3A3A3E047
:10466000C398500DEA240B1255F7640F60037508C8
:10467000E89004EBE0F47003A3E0F470037508EC39
:104680007A237B00121B348B0BA90B901B3C124628
:10469000D160278E828F83A3A3A982AA83890C8AE3
:1046A0000D750E00780C1211917C237D00901B3C3F
:1046B000E0FA1254301211C3800375081AA90802D7
:1046C000645AF582E43FF583E0F88A828B83A3A3E2
:1046D00022EAF0A3EBF0EA492274F5120CB5EAFEE7
:1046E000EBFF8A82F583A3A3A3A3A3A3A3A3E090D4
:1046F00004D2124769E09004EDF0EA240B1255F75A
:104700009004CD124769A3E0901BE6F0F91218BEA1
:10471000901BE6E0600BEE24041255E924061247D4
:104720005F901BE5123AF5600474018002740090FA
:104730001B3E126DAD1211917C0B7D007A3F7B1BED
:104740001254301211C3EE2418F508E43FF509782D
:10475000081211917C0B7D007A4A7B1B02541DFAD2
:10476000E43FFB79E11218A622126D97A3A3A3A33D
:104770002274F7120CB5EAFEEBFF8A82F583A3E000
:104780007003123AAB12691E02570574F7120CB58A
:10479000EAFEEBFF901B3C125A796010901B3C1212
:1047A00050A6901B3CE4F0A3F0121B3A8E828F833C
:1047B000740812518A1223F202570574F6120CB5CE
:1047C000901BE5E06010901B3EE0700A1247D9EAAA
:1047D0004B6003122F3E026A189004CDE0FB900458
:1047E000EDE0FA9004D2E0F9122E602274F4120C7B
:1047F000B574E712125BEAFEEBFF750B018A82F5D6
:1048000083A3A3A3A3A3A3A3E0A2E25069EA242B5A
:10481000F582E43F126470EA2413FAE43FFB122E9F
:104820006CE97052908642E064017005750B00805F
:10483000451248AB1211917C0B7D0074111212339A
:104840001254301211C3123046E9FA740E12122BB0
:10485000880889097808121195750830750900785B
:1048600008121195EE1266CB120FE01268657901FD
:10487000123B171211C38518828519837410F01228
:10488000686574021214A9AA82AB83121C1EEE245E
:104890002B12705E740B1214A91252FA740D1214BA
:1048A000A9E50B126AD77419023B01EE2408126DB8
:1048B000B522C082C083901BE6E060031230B802CC
:1048C000521AC082C083901BDD741BF0A3741BF0CE
:1048D000A3741FF0A3741BF0A3742BF0A3741BF03C
:1048E000901DD974B5F0A37435F0901BC77442F0D5
:1048F000A3742EF0901B607478F0A3742EF0901BBC
:1049000062747EF0A3742EF0901BC2E04402024D4C
:104910001EC082C083EAFCEBFD7903025A25C082E7
:10492000C0837908026B98C082C08374FE12125B48
:10493000901B687426F0A3742FF0901B6A7420F00B
:10494000A3742FF080077A557B1B124983901B5567
:10495000125A7970F1901B57125A7960097A577B75
:104960001B12498380EF901B55E4F0A3F0901B5B72
:10497000F0A3F0A3F0901B767462F0A3742FF07490
:1049800002801C121ACE851882851983EAF0A3EBE7
:1049900012499712303422F0AA18AB19227411125E
:1049A00011C302521A74F6120CB5E9FF741629F5F8
:1049B00082E4343AF583E493FEFA7B00121AA4EA07
:1049C0004B6007EA2E1249F380267A027B00121A06
:1049D000A4EA4B601774DF2FF582E43439F583E4E1
:1049E000938A828B83F0A3741A124DBC7A007B00E9
:1049F000026A181252E9E8126992A3A3A3A3E4F091
:104A000022E9FC740629F8EAA2E0501EE875F00AD3
:104A100084E5F0F96014740A28C399F8E9C3940591
:104A20004004740A28F8740B28F8ECC3941340046B
:104A3000791480027906E82979002409F8500109DF
:104A40007A0A7B00120B65E8F9021157C082C08315
:104A5000901BC2E05402600A1223F8E96004790155
:104A60008002790002521AC082C083901BC2E054B7
:104A7000026014901B5BE0700A125A766009124AB9
:104A80008C500479018002790002521A123ACFA2A6
:104A9000E722C082C08390863FE0F8901B5DE0C3B0
:104AA000985005121AA480047A007B0002521AC0A2
:104AB00082C083123034790002521AC082C08374DB
:104AC000FE12125B851882851983EAF0A3EB124C63
:104AD00025A3A3A3A3A3E0600A14605724FE605A91
:104AE000024B959004D2E0640F601212300AE97014
:104AF0000C1250A0901B64125172120E2D9004FAE9
:104B0000E0C0E0851882851983125999D0E0124CD3
:104B10002574141263B6FCA3E0FD7A577B1B121AAE
:104B2000C8A8A8C2AF901B5D124C497920122FFE75
:104B300002497F124EF3741580D9124EF3A3A3A33A
:104B4000A3E06051124EF31241A7C0E085188285A0
:104B50001983E02406F582E43BF583D0E01263B6C6
:104B60002402F8A3E03400F98882F583E02401FAF6
:104B7000A3E03400FB88828983EAF0A3EB1263B6DA
:104B8000124F338518828519836013124BFA600522
:104B9000124C0C4048AA18AB191230348092124BB8
:104BA000FA60F2124C0C5021124C19FA85188285C9
:104BB0001983A3E0C82406124EEFF87420125BAEEE
:104BC000343AF583E4936A60148518828519831258
:104BD0004BFA640870BF124C19640870B8124C1973
:104BE00014124C2D240AC0E08518828519831251B5
:104BF00072D0E0124C2D04024B13124BFE221250C5
:104C0000F5C82406F582E438F583E022851882850C
:104C10001983124BFEC3940A2285188285198312C8
:104C20003ECAA3E022124C37F583888222124C3709
:104C3000C82406124F1D22F0851882851983125050
:104C4000F522A8A8C2AF901B5CE004F0E8A2E792AE
:104C5000AF22C082C083901B6C125A796008124E3A
:104C6000FA120E2D8002790002521A74F7120CB556
:104C7000EAFEEBFFEA12409074011252A8F8A3E09A
:104C8000F9123C721252FAEA24351255F7C0E0EAE2
:104C90002413F582E43FF583D0E0F0EA2436125580
:104CA000F7C0E0EA2414F582E43FF583D0E0F0EAAF
:104CB00024381255F7C0E0EA2418F582E43FF58362
:104CC000D0E0F0EA242FF582E43FF583120FE012E2
:104CD0006872EA24311255F7F91240711211C3E9D2
:104CE000F5087007EEFAEFFB122F3EA908025705F0
:104CF000C082C08312300AE9600479208002790101
:104D000002521AC082C083EA2411124D14D2E080EC
:104D10000DEA240DF582E43BF583E022F0A3F002D6
:104D2000521AC082C083124D1164017011124DB627
:104D3000400C8A828B83A3E0F91230048066124D06
:104D4000A7A2E650128A828B83A3E0F9901B661219
:104D50005172120E2D804D124D116401700D124DC5
:104D6000B650088A828B83743080368A828B83A304
:104D7000E0641B8A828B83700474228024A3E07019
:104D80000D124D11F8740B125BAE343A800B124DBC
:104D900011F874DF125BAE3439F583E4938A828BA9
:104DA00083124DBC02521A124DAB22EA2410F58236
:104DB000E43BF583E022124DABA2E322F0901BBD51
:104DC000E0F9121AB02274F7120CB5E9FE125A7605
:104DD0007003024EECEE6014741B6E701AE81263DE
:104DE0008239F583E064057003024EC4901B5F12A4
:104DF0004EFAA3E4024ECB74E96E7068E82412F513
:104E000082E439F583E0700B1223FEE96005124F4E
:104E10003D606179EE121828901B5E124F14901BB2
:104E20005E603A124F40901B5E700B124F1414F0EC
:104E30001219DE024EEC124F32C2E71250DB240D83
:104E4000124EEF64037009124F0D125091D2E2F02E
:104E500079ED121828124F25120E2D8078124F006E
:104E600074E9806774E16E703E1223FEE9605512AA
:104E70004F3D70509004F4E0C0E0124F0D2412F545
:104E800082E438F583D0E0F09004E3E0C0E0901BCA
:104E90005E124F09124F09D0E0F09004E3E004F0F5
:104EA00079011219C68045741C6E7018901B5E1231
:104EB00050A6901B6E125172120E2D901B5EE4F0E4
:104EC000A3F08028901B5E124F00EEF0901B5E1244
:104ED00050A6122F2C1250BCE054806003126B8736
:104EE000901B5EE4F0A3F07910122FFE025705121A
:104EF0004F1D22851882851983A3E0F583888222BD
:104F0000124F042212517AA3221259C722901B5E1B
:104F10001259A8221259A82412124F1D22F582E418
:104F200038F583E022901B5E1250AA901B6212514A
:104F30007622E0F8A3E0C82410124F1D22901B5ED9
:104F40001250C3E054042274F4120CB5750A0075B3
:104F50000B00A2AFE433FEC2AF125A7660030250D8
:104F60003A12516F120E2DE94410F8901B5580092A
:104F700085080A85090B125084125098700302505C
:104F80003A124191586870E8780A121195AC08AD50
:104F9000091242961211C3901B5EE508F0A3E509C1
:104FA0001250DB125091A2E75003025041901B5C5B
:104FB000E014F0EEA2E092AF901B5EE0240EF8A3A6
:104FC000E03400F9E8FEE9FF8882F5831250A690EC
:104FD0001B5E124C1FF9122EF0E9901B5912671537
:104FE0008E828F83E054806018124F0D2413124E6E
:104FF000EFF91218E2124F0D2414124EEFF91218A5
:10500000D61250BCA3E05401605F901B59125A792C
:1050100060451250D260401250D2F87900901B596E
:105020001250A6120B6DE8C0E01250B0D0E0125042
:10503000E0C3941340117402800FEEA2E092AF809F
:1050400037901B5B024FB07400C0E0901B5FE0C85C
:1050500012507BD0E0800D1250B074011250DB1260
:10506000507B7401F07903800C901B5E124F32A2CA
:10507000E1B3E433F91219C6023B04241AF582E4C1
:1050800038F58322E50824FBF582E50934FFF58332
:105090002212639C124F2022123AE0E508450922B1
:1050A0008518828519831250AA22E0FAA3E0FB2218
:1050B0001259A52419F582E438F58322901B5E125B
:1050C00050C3221250F5C81250CB22125BBC38F5E7
:1050D00083221259A52418124F1D221250EDC82206
:1050E0001250EDF5838882A3A3A3A3E022F0901BC6
:1050F0005E1250F522E0F8A3E02274F7120CB5EA34
:10510000FEEBFF12302E1255F4A2E3400A12452B9B
:10511000700590863D800390863EE0F9EEFCEFFD41
:105120007A557B1B121AE0E96038EEFAEFFB901B10
:1051300068125172120E2DEE240E1255F75404709F
:1051400012124C42EE123C73A3E05401701E122F57
:10515000388019EEFAEFFB901B60125172120E2D7F
:10516000800A8E828F83A374F112518302570590B7
:105170001B6A1251762212517A22E0F8A3E0F583DD
:1051800088822212518A122F2C22F0EEFAEFFB2293
:1051900002521374F7120CB5EAFEEBFF7900901B74
:1051A000C2E05402700CEA24331255F75404600232
:1051B00079E8901BC2E05460700CEA24331255F772
:1051C0005402600279E88A828B83A3A3A3A3E0F848
:1051D000908643E0C398500279E8EA24311255F7EB
:1051E000700CEA242E1255F7700479F5800BE970E3
:1051F00005122F1AE9F9E96007EEFAEFFB12300405
:10520000025705C082C0838A828B83740DF01223FB
:10521000F28007C082C083122F38D083D08202115F
:105220005774F4120CB5EAFEEBFF8A82F583E4F0C2
:10523000A31252A8540490863D7012E0F8901B5CB3
:10524000E0C398401279F1123004023B04E0F89078
:105250001B5BE0C39850EE1252AEA3E054016037DE
:10526000EA24371255F7C394054033EA2433125524
:10527000F7540570297A707B1B123136EE2437F50E
:1052800082E43FF583123AB5780812118D7A707B6B
:105290001B1252A21211C3EEFA125C9F80AC79E885
:1052A00080A512312A740422F01252AEE022EA24C0
:1052B00033F582E43FF5832274F6120CB5E9FE243F
:1052C00051FAE43400FB121AA4EA4B6015EE8A820C
:1052D0008B83A3A3A3A3F0EA24511252E91252FA3A
:1052E00080047A007B00026A18F8E43BF98A828B1A
:1052F00083A3A322127068901C3AE8F0A3E9F0227D
:10530000025213C082C083901B79748CF0A3742F57
:10531000F0A374BCF0A3742FF0A37492F0A3742FC5
:10532000F0A37498F0A3742FF0A374B6F0A3742FB5
:10533000F0A374AAF0A3742FF0A374A4F0A3742FA5
:10534000F0A374C2F0A3742FF0A374C8F0A3742F59
:10535000F0A374CEF0A3742FF0A374DAF0A3742F2B
:10536000F0A3749EF0A3742FF0A37486F0A3742F9F
:10537000F0A37480F0A3742FF0901B9574B0F0A389
:10538000742FF0A374D4F0A3742FF0A374EEF0A3E1
:105390007430F0A374E0F0A3742FF0A374E6F0A3CC
:1053A000742FF0901BB9E4F0901BBCF0901BA51279
:1053B00053C07402F0901BAE1253C07401024D1E14
:1053C00074FEF0A3742FF0A32274F5120CB574F1DF
:1053D00012125B8518828519837402F0740112140D
:1053E000A9E9F060047AFF7BFF74021214A9125E2F
:1053F0005D7508B175091B750A0078081211917C5A
:105400000B7D0074071214A9AA82AB8312543012C8
:1054100011C3AA18AB191223F2740F80031254306F
:105420001211C37F03020F137C0B7D007AB17B1B2B
:10543000121A7474032274F7120CB574FD12125B05
:10544000851882851983740AF074011214A9E9F091
:1054500074021214A9EA126AD70244AE74F6120C4E
:10546000B574F712125BEAFEEBFFEA1254AE125467
:10547000DE7402F0EA2428FCE43FFDAA18AB1912FE
:105480001C1EEE24311254B424331264D61211952A
:10549000740212123B79831A1A12406F1211C3E977
:1054A000F5087007EEFAEFFB122F3E026A11123C6C
:1054B00077740122F582E43FF583123AE012597EB7
:1054C000F5831254CCE8F0A3E9F0EE221254D48A0A
:1054D000828B8322E024FFF8A3E034FFF922F0A3BB
:1054E000E4F0EA1240902274F0120CB5126F4612EA
:1054F00014527808790C120BC6780812118D7AA80C
:105500007B1B023AE874F4120CB574C612125B905D
:1055100004D2E0640F600D851882851983742E1201
:105520005E7C80227A9F7B1B123B26120B6D8808C3
:105530008909E4F50AF50B780812118D7A9F7B1B17
:105540001252A21211C3743A023B0174F5120CB547
:10555000EAFEEBFF8A82F583A3E0F87078EA243054
:105560001255F764026007E06403600278E8EA24F9
:1055700026F582E43FF583123B1F400478E880580B
:10558000E87052EA242612475FEE24311255E924CE
:10559000301255F76402700EEE242812705E9004EB
:1055A000E11252FA80179004E174FEF0A304F0EEC9
:1055B0002428FCE43FFD7AD87B04121C2AEE241B2D
:1055C0001248AE1211911254281211C3EEFAEFFBD9
:1055D000122F7AE9F8E8600EE88E828F83A31268B2
:1055E0007A7417126924025423FAE43FFB795012AB
:1055F00018A6EE22EE2410F582E43FF583E0227433
:10560000F6120CB574F712125B901BBCE070377485
:1056100001F0F9121990AA18AB191230407508B1AF
:1056200075091B780812119575080175090078082D
:105630001211959004E7120FE0740612123B7A03E0
:10564000123B151211C3026A1374F7120CB51258EB
:10565000257004A374EBF0901BBCE0A2E25003C2DF
:10566000E2F0E0A2E1500512583680098E828F8365
:10567000742A12692402570574F4120CB574FE12D0
:10568000125B12572B125971EC85188285198312FF
:1056900059C0E0F50B7015AA18AB1979531218A66A
:1056A000EE2413FAE43FFB794A1218A61248AB1213
:1056B00011911254281211C31250A0A90B122F6E6F
:1056C000901BBCE0A2E1500312583D901BBCE4F0DB
:1056D0007402023B0174F7120CB5EAFEEBFF8A82FA
:1056E000F583A374EBF0901BBCE0A2E150077A00B5
:1056F00079EB122F74EEFAEFFB122FAA8007EEFA65
:10570000EFFB1230AC7F01020F1374F7120CB512CD
:10571000572B901BB9E4F0901BBCF07AFF7BFF8EF7
:10572000828F83A3E0F9122F6E80DA1258767AA85E
:105730007B1B1231362274F7120CB5EAFEEBFF1216
:105740002FA480BA74F7120CB51258B3A3A3A3E028
:1057500060047400800274EB1257845003C2E2F0BC
:10576000E0A2E150051258878011A2E0500D8E8210
:105770008F83742AF0A374EB126924EEFAEFFB1204
:105780002F5080818E828F83A3F0901BBCE0A2E219
:105790002274F6120CB5EAFEEBFF901BBCE0D2E1DE
:1057A000F079011219908E828F83A3E07038123045
:1057B00046E9FAEE240DF508E43FF50978081211E0
:1057C0009575080175090078081211951257F7129E
:1057D0000FE0EE2402FCE43FFD123B151211C3E979
:1057E0008E828F83A3F08E828F83A3E060067A007F
:1057F000F9122F74026A18EE240BF582E43FF58348
:105800002274F7120CB51258257004A374EBF090B3
:105810001BBCE0A2E25003C2E2F0E0A2E15003129E
:105820005836025705EAFEEBFF79011219968E826F
:105830008F83E0642022C2E1F012583D227A008E6C
:10584000828F83A3E0F9122F742274F7120CB51221
:1058500058768E828F83A3A3A3A3E0600474008094
:105860000274EB1257845003C2E2F0E0A2E150034D
:1058700012588702577BEAFEEBFF79011219967ADC
:105880009F7B1B12313622C2E1126DA8E0A2E4E434
:1058900033FA12583F2274F7120CB51258B374EB56
:1058A0001257895003C2E2F0E0A2E15003125836C9
:1058B000025705EAFEEBFF79011219968E828F835B
:1058C000A32274F7120CB51258D80256FE74F712C0
:1058D0000CB51258D8025705EAFEEBFF7A9F7B1BE6
:1058E000123136EEFAEFFB122FCE2274F7120CB5FE
:1058F00074EF12125BEAFEEBFFEA1268667AD87B5D
:1059000004121C18E960568518828519837409F001
:1059100074011214A974EFF012597174021214A9CF
:10592000EC1259C0A3A3E0C0E074041214A9D0E0A3
:105930001259AD640870158E828F83A3A3125999F2
:10594000E0C0E074051214A9D0E0800674051214BA
:10595000A9E412670274061214A9125962741102A2
:1059600044B0AA82AB83123076AA18AB191223F284
:105970002212597EF583125990FCA3E0F922EE120F
:105980005986FB8882222402F8E43FF9E8FAE922EA
:105990001250F58882F583E0221259A82407F58277
:1059A000E438F58322901B5E1250F5C8221259B1DB
:1059B000221259B6E022F08E828F83A3A3A3A322E2
:1059C0001269921259C7221259CB22E0F8A3E0F5CE
:1059D000838882A3A322C082C0831230B802521AE5
:1059E000C082C083901BD97479F0A3741BF0A37498
:1059F00095F0A3741BF0901DD37417F0A37436F0C8
:105A0000A374DBF0A37436F0901BC57468F0A37424
:105A10002FF0901BC2E04401024D1EC082C083EAF9
:105A2000FCEBFD790212301C02521A74F6120CB50E
:105A300074FE12125B901BBE125A7960077ABE7B0D
:105A40001B123034901BC4E4F09017C6125A7960D0
:105A5000208007AA18AB19123034901BBDE0F91250
:105A60001ABC8B09A9098518828519831246D17041
:105A7000E27402026A15901B5E127068E849227493
:105A8000F7120CB5E9FA7B00901BBDE0F9121AE69B
:105A900002570574F7120CB574F012125BEAFCEBB6
:105AA000FDE9FE8A828B83E0F87400125BAE343A23
:105AB000F583E493C0E074011214A9D0E0F0640B04
:105AC000700DE98A828B83A3F012309A025BA9E001
:105AD0007003025BA9640C6003025B9A741A6E7017
:105AE0000B74041214A9E4F0A3025B997404121459
:105AF000A9125E5DEA2432126366C0E074031214D8
:105B0000A9D0E0126D9312147A74061214A912141B
:105B10006E8C828D83A3A3A3A3A3A3A3A3A31270BC
:105B200064740A1214A9E8F0A3E9125BB3E05410FC
:105B30006009851882851983E48013EC24121263AE
:105B400066F89004F4E0C398851882851983F0E024
:105B5000C0E0740C1214A9D0E0F0EC2415126366B6
:105B6000C0E0740D1214A9D0E0F0EC2416126366A4
:105B7000C0E0740E1214A9D0E0F0EC241712636692
:105B8000C0E0740F1214A9D0E0125BB3A3E054017B
:105B9000600874011214A97411F074021214A9EEB1
:105BA000F074011212331223F274100244B028F57B
:105BB00082E422F0EC125BBC3DF58322240EF582D8
:105BC000E422C082C083901BC4E0640370047901A6
:105BD0008002790002521A74F7120CB5901BC4E0CF
:105BE000125C5274D128F582741D39F5831260E479
:105BF000C2E7F0125C59A3E493FE25E0FCE433FD18
:105C000074D12CF582741D3D126470EC4D6005EE6C
:105C1000901BC4F08A828B83E025E0FCE433FDE82E
:105C20002CF582E93DF583E493FCC4540F25E0F89C
:105C300074D3125BAE341BF583125A79700512309F
:105C400088800CEC540F125C59125172120E2D0206
:105C5000570525E0F8E433F92225E0FCE82CF5822D
:105C6000E439F5832274F2120CB574FE12125B89CA
:105C70000B8A088B09125D04125CF5601A12670F1B
:105C8000F50A7808121191125D112402126466124D
:105C900011C3125C9D8003125D23024100AA0CEF28
:105CA000FB901BBDE0F9121AB02274F0120CB5740F
:105CB000FE12125B890B8A0E8B0F125D04F508121F
:105CC0005CF5602712670FA808EA281249F3850ED1
:105CD00008850F09F50A7808121191125D111264F6
:105CE000641211C3125C9D79008005125D23791A3C
:105CF0007402023AEDFA7B00121AA48A0C8B0DAFE3
:105D00000DEA4F2274EA29F582E43439F583E493ED
:105D100022A80B74F5125BAE3439F583E493FC7D55
:105D200000EA22851882851983E50BF0791AAA18F2
:105D3000AB1912300422C082C083E9901BBD024D12
:105D40001E74F6120CB574FE12125BEAFEEBFFEA4B
:105D5000542070308039A8A8C2AF901B5DE01412A7
:105D60004C4B8A828B83125E4A901BC0125E5D127E
:105D70003010851882851983E0641560077AC07B2E
:105D80001B1230347A577B1B121ACEEA4B70C7EFC6
:105D90005480700C8016901BC0EAF0A3EB125E706A
:105DA000901BBDE0F9121ABCEA4B70EAEE54106089
:105DB0000B851882851983742D125E7CEEA2E0504B
:105DC0000B8518828519837424125E7CEE54026060
:105DD0000B8518828519837425125E7CEE5404604D
:105DE0000B8518828519837426125E7CEE54086038
:105DF0000B8518828519837428125E7CEE544060EE
:105E00000D74011214A9125E63742C125E7CEE54A0
:105E100080600D74011214A9125E63742F125E7CEF
:105E2000901BBE125A79601BA8A8C2AF901BBE126D
:105E300050A6901BBEE4F0A3124C4BA3EAF0A3E9DA
:105E4000125E707A007B00025A71125E4E22E0856B
:105E50001882851983F022A3A3A3A3A3A3EAF0A326
:105E6000EBF022E4125E6822F08518828519832205
:105E7000F01230107AC07B1B123034221249971274
:105E8000301022C082C083901BC0126AD268700298
:105E9000EB697007901BC0E4F0A3F002521A74F78C
:105EA000120CB5EAFEEBFFEA4F700312165AA2AFCE
:105EB000E433F508C2AF8E828F83125A796028E8E6
:105EC00024FBFAE934FFFB901BC0126472E86C708B
:105ED00002E96D7007901BC0E4F0A3F08E828F83FF
:105EE000E4F0A3F0121B3A02431CC082C083901B53
:105EF000E7747CF0A37430F0A3748EF0A37430F0D8
:105F0000A37494F0A37430F0A3744AF0A3742FF038
:105F1000A3749AF0A37430F0A37444F0A3742FF028
:105F2000A37450F0A3742FF0901BF574CAF0A374FF
:105F300030F0A374A0F0A37430F0A374A6F0A3749F
:105F400030F0A374B2F0A37430F0A374ACF0A37477
:105F500030F0901BE6E4024D1EC082C0839004E145
:105F6000E064FE7003A3E0F470097CD87D04121C89
:105F70001E801C8A828B83A3A3A3A3A3A3A3A374C1
:105F800002F09004E11270648A828B831252FA024A
:105F9000521AC082C0839004EBC3E094FEA3E09445
:105FA000FF400479038002790202521AC082C08342
:105FB0001260ED8C828D831260A268703974026861
:105FC000701C8A828B83125FFBE06870298A828B47
:105FD00083A3125FFBA3E068701C7901801A74032D
:105FE000687013EC2405FC50010DEA2405FA5001F9
:105FF0000B121C248002790002521AA3A3A3A3A3AC
:10600000E0F88C828D83A3A3A3A3A32274F6120CC1
:10601000B57E00740A1214A9E0126096FF8A828B82
:1060200083A3A3A3A3A3A3A3A3E06F706474026FCD
:10603000704E8A828B83C082C08388828983A3A3A7
:10604000A3A3A3E0F50888828983A3A3A3A3A3A3A2
:10605000E0FBAA08D083D082E06A7003A3E06B70F3
:106060003088828983A3A3A3E0FA88828983A3A3CB
:10607000A3A3E0F9EA6C7002E96D70157E0180114E
:1060800074036F700CE82405FCE439FD121C24E94C
:10609000FEEEF9026A18F8A3E0F98882F58312602F
:1060A000A222A3E01313543F540322C082C0838A68
:1060B000828B83A3A3A3A3A3A3A3A3E0640270166C
:1060C0009004E11260E4687003A3E0697004790150
:1060D000800F7900800BEAFCEBFD7AD87B04121C60
:1060E0001802521A1270688A828B83E0228A828B8D
:1060F000831260A2F82274F0120CB574FC12125BC9
:10610000E9851882851983F074021214A9ECF0A3B2
:10611000EDF08A0A8B0B75080074021214A9E024B2
:1061200008126366C0E074011214A9D0E01263B6CD
:10613000A2E75008750EFF750FFF800A9004E7E094
:10614000F50EA3E0F50F851882851983E0C2E712EA
:1061500063BB54206007126388740880041263884C
:10616000E41263BB540460071263937480800512C9
:10617000639374101263BB5410600612636EE48064
:106180000B9004F4E0C0E012636ED0E01263BBA297
:10619000E050037508205408600674104508F5089F
:1061A0008A828B83A3A3E024FFFEA3E034FFFFEAEF
:1061B000126379C39402E0400F640B6009E0148E0F
:1061C000828F831263AC74034508F508750900904B
:1061D0000507E0640170118A828B83A3A3A3A3E067
:1061E000C394674003750910851882851983E0F50B
:1061F0000C750D00740E780C121387E50D4509F52A
:1062000009E06402701B9004ECE08E828F83F090B2
:1062100004EBE0C0E0124077D0E0F0EE24FEFE8018
:106220001CE06403701DEE24F9FEEF34FFFF7CFBDD
:106230007D04EEFAEFFB121C2AEE24FF1EEF34FF62
:10624000FF8003E0602F74011214A9E06018741439
:106250001214A9E0650E7004A3E0650F7008744085
:106260004508F508800F8E828F83E50FF012407786
:10627000E50E1263A274011214A9E0F50C750D006D
:10628000740A780C121387E50D4509F509E06402DC
:10629000702374021214A9126ACD8E828F83F07457
:1062A000021214A91241A9C0E0124077D0E0F0EE2A
:1062B00024FEFE8020E064037021EE24F9FEEF341A
:1062C000FFFF74021214A9126472EEFAEFFB121CA3
:1062D0002AEE24FF1EEF34FFFF8003E0601C7414DD
